{
  "_format": "hh-sol-artifact-1",
  "contractName": "YMToken",
  "sourceName": "contracts/YMToken.sol",
  "abi": [
    {
      "inputs": [
        {
          "internalType": "address",
          "name": "priceFeedAddress",
          "type": "address"
        }
      ],
      "stateMutability": "nonpayable",
      "type": "constructor"
    },
    {
      "anonymous": false,
      "inputs": [
        {
          "indexed": false,
          "internalType": "address",
          "name": "owner",
          "type": "address"
        },
        {
          "indexed": false,
          "internalType": "address",
          "name": "sender",
          "type": "address"
        },
        {
          "indexed": false,
          "internalType": "uint256",
          "name": "value",
          "type": "uint256"
        }
      ],
      "name": "Approval",
      "type": "event"
    },
    {
      "anonymous": false,
      "inputs": [
        {
          "indexed": false,
          "internalType": "address",
          "name": "owner",
          "type": "address"
        },
        {
          "indexed": false,
          "internalType": "uint256",
          "name": "value",
          "type": "uint256"
        }
      ],
      "name": "Burn",
      "type": "event"
    },
    {
      "anonymous": false,
      "inputs": [
        {
          "indexed": false,
          "internalType": "address",
          "name": "owner",
          "type": "address"
        },
        {
          "indexed": false,
          "internalType": "address",
          "name": "sender",
          "type": "address"
        },
        {
          "indexed": false,
          "internalType": "uint256",
          "name": "value",
          "type": "uint256"
        }
      ],
      "name": "Transfer",
      "type": "event"
    },
    {
      "anonymous": false,
      "inputs": [
        {
          "indexed": false,
          "internalType": "address",
          "name": "owner",
          "type": "address"
        },
        {
          "indexed": false,
          "internalType": "address",
          "name": "sender",
          "type": "address"
        },
        {
          "indexed": false,
          "internalType": "uint256",
          "name": "value",
          "type": "uint256"
        }
      ],
      "name": "Transferrable",
      "type": "event"
    },
    {
      "inputs": [],
      "name": "_decimals",
      "outputs": [
        {
          "internalType": "uint256",
          "name": "",
          "type": "uint256"
        }
      ],
      "stateMutability": "view",
      "type": "function"
    },
    {
      "inputs": [],
      "name": "_minter",
      "outputs": [
        {
          "internalType": "address",
          "name": "",
          "type": "address"
        }
      ],
      "stateMutability": "view",
      "type": "function"
    },
    {
      "inputs": [],
      "name": "_name",
      "outputs": [
        {
          "internalType": "string",
          "name": "",
          "type": "string"
        }
      ],
      "stateMutability": "view",
      "type": "function"
    },
    {
      "inputs": [],
      "name": "_symbol",
      "outputs": [
        {
          "internalType": "string",
          "name": "",
          "type": "string"
        }
      ],
      "stateMutability": "view",
      "type": "function"
    },
    {
      "inputs": [],
      "name": "_totalSupply",
      "outputs": [
        {
          "internalType": "uint256",
          "name": "",
          "type": "uint256"
        }
      ],
      "stateMutability": "view",
      "type": "function"
    },
    {
      "inputs": [
        {
          "internalType": "address",
          "name": "sender",
          "type": "address"
        },
        {
          "internalType": "uint256",
          "name": "value",
          "type": "uint256"
        }
      ],
      "name": "approve",
      "outputs": [
        {
          "internalType": "bool",
          "name": "",
          "type": "bool"
        }
      ],
      "stateMutability": "nonpayable",
      "type": "function"
    },
    {
      "inputs": [
        {
          "internalType": "uint256",
          "name": "value",
          "type": "uint256"
        }
      ],
      "name": "burn",
      "outputs": [
        {
          "internalType": "bool",
          "name": "",
          "type": "bool"
        }
      ],
      "stateMutability": "nonpayable",
      "type": "function"
    },
    {
      "inputs": [
        {
          "internalType": "address",
          "name": "to",
          "type": "address"
        },
        {
          "internalType": "uint256",
          "name": "value",
          "type": "uint256"
        }
      ],
      "name": "fund",
      "outputs": [],
      "stateMutability": "payable",
      "type": "function"
    },
    {
      "inputs": [
        {
          "internalType": "address",
          "name": "add",
          "type": "address"
        }
      ],
      "name": "getAllowance",
      "outputs": [
        {
          "internalType": "uint256",
          "name": "",
          "type": "uint256"
        }
      ],
      "stateMutability": "view",
      "type": "function"
    },
    {
      "inputs": [
        {
          "internalType": "address",
          "name": "add",
          "type": "address"
        }
      ],
      "name": "getBalance",
      "outputs": [
        {
          "internalType": "uint256",
          "name": "",
          "type": "uint256"
        }
      ],
      "stateMutability": "view",
      "type": "function"
    },
    {
      "inputs": [],
      "name": "getConversionRate",
      "outputs": [
        {
          "internalType": "uint256",
          "name": "",
          "type": "uint256"
        }
      ],
      "stateMutability": "view",
      "type": "function"
    },
    {
      "inputs": [],
      "name": "getDecimals",
      "outputs": [
        {
          "internalType": "uint256",
          "name": "",
          "type": "uint256"
        }
      ],
      "stateMutability": "view",
      "type": "function"
    },
    {
      "inputs": [
        {
          "internalType": "uint256",
          "name": "value",
          "type": "uint256"
        }
      ],
      "name": "getETHAmount",
      "outputs": [
        {
          "internalType": "uint256",
          "name": "",
          "type": "uint256"
        }
      ],
      "stateMutability": "view",
      "type": "function"
    },
    {
      "inputs": [],
      "name": "getMinter",
      "outputs": [
        {
          "internalType": "address",
          "name": "",
          "type": "address"
        }
      ],
      "stateMutability": "view",
      "type": "function"
    },
    {
      "inputs": [],
      "name": "getName",
      "outputs": [
        {
          "internalType": "string",
          "name": "",
          "type": "string"
        }
      ],
      "stateMutability": "view",
      "type": "function"
    },
    {
      "inputs": [],
      "name": "getPriceFeed",
      "outputs": [
        {
          "internalType": "contract AggregatorV3Interface",
          "name": "",
          "type": "address"
        }
      ],
      "stateMutability": "view",
      "type": "function"
    },
    {
      "inputs": [],
      "name": "getSymbol",
      "outputs": [
        {
          "internalType": "string",
          "name": "",
          "type": "string"
        }
      ],
      "stateMutability": "view",
      "type": "function"
    },
    {
      "inputs": [],
      "name": "getTotalSupply",
      "outputs": [
        {
          "internalType": "uint256",
          "name": "",
          "type": "uint256"
        }
      ],
      "stateMutability": "view",
      "type": "function"
    },
    {
      "inputs": [],
      "name": "owner",
      "outputs": [
        {
          "internalType": "address",
          "name": "",
          "type": "address"
        }
      ],
      "stateMutability": "view",
      "type": "function"
    },
    {
      "inputs": [],
      "name": "priceFeed",
      "outputs": [
        {
          "internalType": "contract AggregatorV3Interface",
          "name": "",
          "type": "address"
        }
      ],
      "stateMutability": "view",
      "type": "function"
    },
    {
      "inputs": [
        {
          "internalType": "address",
          "name": "to",
          "type": "address"
        },
        {
          "internalType": "uint256",
          "name": "value",
          "type": "uint256"
        }
      ],
      "name": "transfer",
      "outputs": [],
      "stateMutability": "nonpayable",
      "type": "function"
    },
    {
      "inputs": [
        {
          "internalType": "address",
          "name": "from",
          "type": "address"
        },
        {
          "internalType": "address",
          "name": "to",
          "type": "address"
        },
        {
          "internalType": "uint256",
          "name": "value",
          "type": "uint256"
        }
      ],
      "name": "transferFrom",
      "outputs": [
        {
          "internalType": "bool",
          "name": "",
          "type": "bool"
        }
      ],
      "stateMutability": "payable",
      "type": "function"
    }
  ],
  "bytecode": "0x60806040523480156200001157600080fd5b50604051620020a4380380620020a4833981810160405281019062000037919062000407565b6040518060400160405280600481526020017f4455504c00000000000000000000000000000000000000000000000000000000815250600090805190602001906200008492919062000340565b506040518060400160405280600981526020017f4455504c4943415445000000000000000000000000000000000000000000000081525060019080519060200190620000d292919062000340565b50601260028190555033600460006101000a81548173ffffffffffffffffffffffffffffffffffffffff021916908373ffffffffffffffffffffffffffffffffffffffff160217905550620f424060038190555080600860006101000a81548173ffffffffffffffffffffffffffffffffffffffff021916908373ffffffffffffffffffffffffffffffffffffffff16021790555033600560006101000a81548173ffffffffffffffffffffffffffffffffffffffff021916908373ffffffffffffffffffffffffffffffffffffffff16021790555060035460066000600460009054906101000a900473ffffffffffffffffffffffffffffffffffffffff1673ffffffffffffffffffffffffffffffffffffffff1673ffffffffffffffffffffffffffffffffffffffff1681526020019081526020016000208190555060035460076000600460009054906101000a900473ffffffffffffffffffffffffffffffffffffffff1673ffffffffffffffffffffffffffffffffffffffff1673ffffffffffffffffffffffffffffffffffffffff1681526020019081526020016000206000600460009054906101000a900473ffffffffffffffffffffffffffffffffffffffff1673ffffffffffffffffffffffffffffffffffffffff1673ffffffffffffffffffffffffffffffffffffffff168152602001908152602001600020819055507fddf252ad1be2c89b69c2b068fc378daa952ba7f163c4a11628f55a4df523b3ef6000600560009054906101000a900473ffffffffffffffffffffffffffffffffffffffff1660035460405162000331939291906200045b565b60405180910390a1506200055a565b8280546200034e90620004d6565b90600052602060002090601f016020900481019282620003725760008555620003be565b82601f106200038d57805160ff1916838001178555620003be565b82800160010185558215620003be579182015b82811115620003bd578251825591602001919060010190620003a0565b5b509050620003cd9190620003d1565b5090565b5b80821115620003ec576000816000905550600101620003d2565b5090565b600081519050620004018162000540565b92915050565b60006020828403121562000420576200041f6200053b565b5b60006200043084828501620003f0565b91505092915050565b620004448162000498565b82525050565b6200045581620004cc565b82525050565b600060608201905062000472600083018662000439565b62000481602083018562000439565b6200049060408301846200044a565b949350505050565b6000620004a582620004ac565b9050919050565b600073ffffffffffffffffffffffffffffffffffffffff82169050919050565b6000819050919050565b60006002820490506001821680620004ef57607f821691505b602082108114156200050657620005056200050c565b5b50919050565b7f4e487b7100000000000000000000000000000000000000000000000000000000600052602260045260246000fd5b600080fd5b6200054b8162000498565b81146200055757600080fd5b50565b611b3a806200056a6000396000f3fe6080604052600436106101355760003560e01c80639e87a5cd116100ab578063eb5a662e1161006f578063eb5a662e14610402578063ef46b2ab1461043f578063f0141d841461047c578063f36089ec146104a7578063f3667517146104d2578063f8b2cb4f146104fd57610135565b80639e87a5cd1461032d578063a9059cbb14610358578063b09f126614610381578063c4e41b22146103ac578063d28d8852146103d757610135565b80633eaaf86b116100fd5780633eaaf86b1461022857806342966c6814610253578063578ec33f14610290578063741bef1a146102bb5780637b1837de146102e65780638da5cb5b1461030257610135565b8063095ea7b31461013a578063150704011461017757806317d7de7c146101a257806323b872dd146101cd57806332424aa3146101fd575b600080fd5b34801561014657600080fd5b50610161600480360381019061015c91906112f6565b61053a565b60405161016e9190611529565b60405180910390f35b34801561018357600080fd5b5061018c610602565b604051610199919061155f565b60405180910390f35b3480156101ae57600080fd5b506101b7610694565b6040516101c4919061155f565b60405180910390f35b6101e760048036038101906101e291906112a3565b610726565b6040516101f49190611529565b60405180910390f35b34801561020957600080fd5b506102126109f2565b60405161021f91906115a1565b60405180910390f35b34801561023457600080fd5b5061023d6109f8565b60405161024a91906115a1565b60405180910390f35b34801561025f57600080fd5b5061027a60048036038101906102759190611336565b6109fe565b6040516102879190611529565b60405180910390f35b34801561029c57600080fd5b506102a5610b01565b6040516102b291906114ae565b60405180910390f35b3480156102c757600080fd5b506102d0610b27565b6040516102dd9190611544565b60405180910390f35b61030060048036038101906102fb91906112f6565b610b4d565b005b34801561030e57600080fd5b50610317610c7c565b60405161032491906114ae565b60405180910390f35b34801561033957600080fd5b50610342610ca2565b60405161034f9190611544565b60405180910390f35b34801561036457600080fd5b5061037f600480360381019061037a91906112f6565b610ccc565b005b34801561038d57600080fd5b50610396610e77565b6040516103a3919061155f565b60405180910390f35b3480156103b857600080fd5b506103c1610f05565b6040516103ce91906115a1565b60405180910390f35b3480156103e357600080fd5b506103ec610f0f565b6040516103f9919061155f565b60405180910390f35b34801561040e57600080fd5b5061042960048036038101906104249190611276565b610f9d565b60405161043691906115a1565b60405180910390f35b34801561044b57600080fd5b5061046660048036038101906104619190611336565b611023565b60405161047391906115a1565b60405180910390f35b34801561048857600080fd5b50610491611082565b60405161049e91906115a1565b60405180910390f35b3480156104b357600080fd5b506104bc61108c565b6040516104c991906115a1565b60405180910390f35b3480156104de57600080fd5b506104e76110be565b6040516104f491906114ae565b60405180910390f35b34801561050957600080fd5b50610524600480360381019061051f9190611276565b6110e8565b60405161053191906115a1565b60405180910390f35b600081600760008573ffffffffffffffffffffffffffffffffffffffff1673ffffffffffffffffffffffffffffffffffffffff16815260200190815260200160002060003373ffffffffffffffffffffffffffffffffffffffff1673ffffffffffffffffffffffffffffffffffffffff168152602001908152602001600020819055507f8c5be1e5ebec7d5bd14f71427d1e84f3dd0314c0f7b2291e5b200ac8c7c3b9253384846040516105f0939291906114c9565b60405180910390a16001905092915050565b606060008054610611906118e0565b80601f016020809104026020016040519081016040528092919081815260200182805461063d906118e0565b801561068a5780601f1061065f5761010080835404028352916020019161068a565b820191906000526020600020905b81548152906001019060200180831161066d57829003601f168201915b5050505050905090565b6060600180546106a3906118e0565b80601f01602080910402602001604051908101604052809291908181526020018280546106cf906118e0565b801561071c5780601f106106f15761010080835404028352916020019161071c565b820191906000526020600020905b8154815290600101906020018083116106ff57829003601f168201915b5050505050905090565b600080670de0b6b3a764000060028461073f9190611781565b6107499190611781565b9050600061077982600860009054906101000a900473ffffffffffffffffffffffffffffffffffffffff16611131565b905083600660008873ffffffffffffffffffffffffffffffffffffffff1673ffffffffffffffffffffffffffffffffffffffff1681526020019081526020016000205410158015610846575083600760008873ffffffffffffffffffffffffffffffffffffffff1673ffffffffffffffffffffffffffffffffffffffff16815260200190815260200160002060003373ffffffffffffffffffffffffffffffffffffffff1673ffffffffffffffffffffffffffffffffffffffff1681526020019081526020016000205410155b80156108525750600081115b610891576040517f08c379a000000000000000000000000000000000000000000000000000000000815260040161088890611581565b60405180910390fd5b60008673ffffffffffffffffffffffffffffffffffffffff16826040516108b790611499565b60006040518083038185875af1925050503d80600081146108f4576040519150601f19603f3d011682016040523d82523d6000602084013e6108f9565b606091505b5050905084600660008973ffffffffffffffffffffffffffffffffffffffff1673ffffffffffffffffffffffffffffffffffffffff168152602001908152602001600020600082825461094c91906117db565b9250508190555084600660008873ffffffffffffffffffffffffffffffffffffffff1673ffffffffffffffffffffffffffffffffffffffff16815260200190815260200160002060008282546109a291906115e3565b925050819055507fddf252ad1be2c89b69c2b068fc378daa952ba7f163c4a11628f55a4df523b3ef8787876040516109dc939291906114c9565b60405180910390a1600193505050509392505050565b60025481565b60035481565b600081600660003373ffffffffffffffffffffffffffffffffffffffff1673ffffffffffffffffffffffffffffffffffffffff168152602001908152602001600020541015610a5057610a4f611912565b5b81600660003373ffffffffffffffffffffffffffffffffffffffff1673ffffffffffffffffffffffffffffffffffffffff1681526020019081526020016000206000828254610a9f91906117db565b925050819055508160036000828254610ab891906117db565b925050819055507fcc16f5dbb4873280815c1ee09dbd06736cffcc184412cf7a71a0fdb75d397ca53383604051610af0929190611500565b60405180910390a160019050919050565b600460009054906101000a900473ffffffffffffffffffffffffffffffffffffffff1681565b600860009054906101000a900473ffffffffffffffffffffffffffffffffffffffff1681565b8060066000600560009054906101000a900473ffffffffffffffffffffffffffffffffffffffff1673ffffffffffffffffffffffffffffffffffffffff1673ffffffffffffffffffffffffffffffffffffffff1681526020019081526020016000206000828254610bbe91906117db565b9250508190555080600660008473ffffffffffffffffffffffffffffffffffffffff1673ffffffffffffffffffffffffffffffffffffffff1681526020019081526020016000206000828254610c1491906115e3565b925050819055507fddf252ad1be2c89b69c2b068fc378daa952ba7f163c4a11628f55a4df523b3ef600560009054906101000a900473ffffffffffffffffffffffffffffffffffffffff168383604051610c70939291906114c9565b60405180910390a15050565b600560009054906101000a900473ffffffffffffffffffffffffffffffffffffffff1681565b6000600860009054906101000a900473ffffffffffffffffffffffffffffffffffffffff16905090565b6000670de0b6b3a7640000600283610ce49190611781565b610cee9190611781565b90506000610d1e82600860009054906101000a900473ffffffffffffffffffffffffffffffffffffffff16611131565b905082600660003373ffffffffffffffffffffffffffffffffffffffff1673ffffffffffffffffffffffffffffffffffffffff1681526020019081526020016000205410158015610deb575082600760003373ffffffffffffffffffffffffffffffffffffffff1673ffffffffffffffffffffffffffffffffffffffff16815260200190815260200160002060003373ffffffffffffffffffffffffffffffffffffffff1673ffffffffffffffffffffffffffffffffffffffff1681526020019081526020016000205410155b8015610df75750600081115b610e36576040517f08c379a0000000000000000000000000000000000000000000000000000000008152600401610e2d90611581565b60405180910390fd5b7fc4289286dea4f4fb386ebf20395d903342a8fd42d06a798a0f19af14f403b579338585604051610e69939291906114c9565b60405180910390a150505050565b60008054610e84906118e0565b80601f0160208091040260200160405190810160405280929190818152602001828054610eb0906118e0565b8015610efd5780601f10610ed257610100808354040283529160200191610efd565b820191906000526020600020905b815481529060010190602001808311610ee057829003601f168201915b505050505081565b6000600354905090565b60018054610f1c906118e0565b80601f0160208091040260200160405190810160405280929190818152602001828054610f48906118e0565b8015610f955780601f10610f6a57610100808354040283529160200191610f95565b820191906000526020600020905b815481529060010190602001808311610f7857829003601f168201915b505050505081565b6000600760008373ffffffffffffffffffffffffffffffffffffffff1673ffffffffffffffffffffffffffffffffffffffff16815260200190815260200160002060003373ffffffffffffffffffffffffffffffffffffffff1673ffffffffffffffffffffffffffffffffffffffff168152602001908152602001600020549050919050565b600080670de0b6b3a764000060028461103c9190611781565b6110469190611781565b9050600061107682600860009054906101000a900473ffffffffffffffffffffffffffffffffffffffff16611131565b90508092505050919050565b6000600254905090565b60006110b9600860009054906101000a900473ffffffffffffffffffffffffffffffffffffffff1661116d565b905090565b6000600460009054906101000a900473ffffffffffffffffffffffffffffffffffffffff16905090565b6000600660008373ffffffffffffffffffffffffffffffffffffffff1673ffffffffffffffffffffffffffffffffffffffff168152602001908152602001600020549050919050565b60008061113d8361116d565b9050600081670de0b6b3a7640000866111569190611781565b6111609190611639565b9050809250505092915050565b6000808273ffffffffffffffffffffffffffffffffffffffff1663feaf968c6040518163ffffffff1660e01b815260040160a06040518083038186803b1580156111b657600080fd5b505afa1580156111ca573d6000803e3d6000fd5b505050506040513d601f19601f820116820180604052508101906111ee9190611363565b5050509150506402540be40081611205919061166a565b915050919050565b60008135905061121c81611aa8565b92915050565b60008151905061123181611abf565b92915050565b60008135905061124681611ad6565b92915050565b60008151905061125b81611ad6565b92915050565b60008151905061127081611aed565b92915050565b60006020828403121561128c5761128b6119ce565b5b600061129a8482850161120d565b91505092915050565b6000806000606084860312156112bc576112bb6119ce565b5b60006112ca8682870161120d565b93505060206112db8682870161120d565b92505060406112ec86828701611237565b9150509250925092565b6000806040838503121561130d5761130c6119ce565b5b600061131b8582860161120d565b925050602061132c85828601611237565b9150509250929050565b60006020828403121561134c5761134b6119ce565b5b600061135a84828501611237565b91505092915050565b600080600080600060a0868803121561137f5761137e6119ce565b5b600061138d88828901611261565b955050602061139e88828901611222565b94505060406113af8882890161124c565b93505060606113c08882890161124c565b92505060806113d188828901611261565b9150509295509295909350565b6113e78161180f565b82525050565b6113f681611821565b82525050565b61140581611877565b82525050565b6000611416826115bc565b61142081856115d2565b93506114308185602086016118ad565b611439816119d3565b840191505092915050565b6000611451608b836115d2565b915061145c826119e4565b60a082019050919050565b60006114746000836115c7565b915061147f82611aa5565b600082019050919050565b61149381611857565b82525050565b60006114a482611467565b9150819050919050565b60006020820190506114c360008301846113de565b92915050565b60006060820190506114de60008301866113de565b6114eb60208301856113de565b6114f8604083018461148a565b949350505050565b600060408201905061151560008301856113de565b611522602083018461148a565b9392505050565b600060208201905061153e60008301846113ed565b92915050565b600060208201905061155960008301846113fc565b92915050565b60006020820190508181036000830152611579818461140b565b905092915050565b6000602082019050818103600083015261159a81611444565b9050919050565b60006020820190506115b6600083018461148a565b92915050565b600081519050919050565b600081905092915050565b600082825260208201905092915050565b60006115ee82611857565b91506115f983611857565b9250827fffffffffffffffffffffffffffffffffffffffffffffffffffffffffffffffff0382111561162e5761162d611941565b5b828201905092915050565b600061164482611857565b915061164f83611857565b92508261165f5761165e611970565b5b828204905092915050565b60006116758261182d565b91506116808361182d565b9250827f7fffffffffffffffffffffffffffffffffffffffffffffffffffffffffffffff04821160008413600084131616156116bf576116be611941565b5b817f800000000000000000000000000000000000000000000000000000000000000005831260008412600084131616156116fc576116fb611941565b5b827f8000000000000000000000000000000000000000000000000000000000000000058212600084136000841216161561173957611738611941565b5b827f7fffffffffffffffffffffffffffffffffffffffffffffffffffffffffffffff058212600084126000841216161561177657611775611941565b5b828202905092915050565b600061178c82611857565b915061179783611857565b9250817fffffffffffffffffffffffffffffffffffffffffffffffffffffffffffffffff04831182151516156117d0576117cf611941565b5b828202905092915050565b60006117e682611857565b91506117f183611857565b92508282101561180457611803611941565b5b828203905092915050565b600061181a82611837565b9050919050565b60008115159050919050565b6000819050919050565b600073ffffffffffffffffffffffffffffffffffffffff82169050919050565b6000819050919050565b600069ffffffffffffffffffff82169050919050565b600061188282611889565b9050919050565b60006118948261189b565b9050919050565b60006118a682611837565b9050919050565b60005b838110156118cb5780820151818401526020810190506118b0565b838111156118da576000848401525b50505050565b600060028204905060018216806118f857607f821691505b6020821081141561190c5761190b61199f565b5b50919050565b7f4e487b7100000000000000000000000000000000000000000000000000000000600052600160045260246000fd5b7f4e487b7100000000000000000000000000000000000000000000000000000000600052601160045260246000fd5b7f4e487b7100000000000000000000000000000000000000000000000000000000600052601260045260246000fd5b7f4e487b7100000000000000000000000000000000000000000000000000000000600052602260045260246000fd5b600080fd5b6000601f19601f8301169050919050565b7f45697468657220796f7520646f206e6f7420686176652073756666696369656e60008201527f742062616c616e6365206f7220796f7520617265206e6f7420616c6c6f77656460208201527f2020202020202020746f207472616e736665722074686973206d75636820616d60408201527f6f756e74206f7220796f752061726520747279696e6720746f207472616e736660608201527f6572203020616d6f756e74000000000000000000000000000000000000000000608082015250565b50565b611ab18161180f565b8114611abc57600080fd5b50565b611ac88161182d565b8114611ad357600080fd5b50565b611adf81611857565b8114611aea57600080fd5b50565b611af681611861565b8114611b0157600080fd5b5056fea264697066735822122083993e7dbcf781fbe22a670a04983eab05d3615ffa5ee61571f96d9fb10945cc64736f6c63430008070033",
  "linkReferences": {},
  "deployedLinkReferences": {}
}